:0A0000000C94A0000C9400000C9476
:10000A0000000C9400000C9400000C94CC000C949A
:10001A0000000C9400000C9400000C9400000C9456
:10002A0000000C9400000C9400000C9400000C9446
:10003A0000000C9400000C9400000C9400000C9436
:10004A0000000C9400000C9400001027E8036400E0
:10005A000A00010000100001100001000000000069
:10006A0000000000504D00414D0054696D653A2072
:10007A00253032643A253032643A253032642573A9
:10008A0000416C61726D3A20253032643A25303273
:10009A00643A2530326400416C61726D3A204E6FC9
:1000AA007420736574005365742054696D653A0051
:1000BA00486F75723A2025303264004D696E757446
:1000CA00653A2025303264005365636F6E643A20C6
:1000DA00253032640054696D652053617665640089
:1000EA0053657420416C61726D3A00416C61726DA6
:1000FA0020536574000080C00100020066000600FB
:10010A0004006800030060026E00030063027100CD
:10011A000F006602A1000A007502B0000B007F0200
:10012A00DF000B008A02EA000A009502F5000200CD
:10013A00C30200010000F894EE27ECBBF1E0F5BF22
:10014A00E5BF8DE0A2E0BB27ED938A95E9F780E051
:10015A0098E0A0E6ED930197E9F7E2E0F1E08591F6
:10016A009591009761F0A591B59105901590BF0101
:10017A00F00105900D920197E1F7FB01F0CFEFE551
:10018A00EDBFE8E0EEBFC0E6D2E00C94F600AA9319
:10019A00BA93EA93FA93EFB7EA93A1ECB2E00E941A
:1001AA00D404A091C102B091C202119798F0E0E084
:1001BA00E093C102E093C2027394ECE37E1650F01E
:1001CA00772443944E1630F044245394E8E15E16A3
:1001DA0008F05524E991EFBFF991E991B991A991F4
:1001EA001895E0E0EABBEBBBE0E1E7BBE0E0E8BB87
:1001FA00E4BBE5BBE1BBE2BBE8E0E2BDE0E0E4BDB5
:10020A00E3BDE5E0E5BDE2B5E770E9F7E0E4E9BFA3
:10021A005524442477247894A0E10E94A60413D09C
:10022A001BD0A4E6B0E00E946C05B09906C0B19953
:10023A0004C0B29902C0B39B01C06DD0B599D8D0A1
:10024A0047D1EECFFFCF0E94DA040E94DF04A8EB69
:10025A00BBE00E946C05C9C023971A93152DECE0E8
:10026A005E1688F0FE013196FA93EA93A0E6B2E0B0
:10027A000E942104ECE0E51520F4E52DEC501E2F38
:10028A0001C01CE00DC0FE013196FA93EA93A3E681
:10029A00B2E00E942104552011F41CE001C0152D82
:1002AA000E94E4040E94E704E4E7F0E00E94EC0400
:1002BA000E94F5040E94FC04FE01719666277727C6
:1002CA000E94BA0580E10E94ED0364960E9403052C
:1002DA000E94DF0420FE14C00E940705EBE8F0E04C
:1002EA00FA93EA93E62D0E940C05E92D0E940C056B
:1002FA00E82D0E940C058CE00E94ED03609606C072
:10030A000E940705A6E6B2E00E9421040E94120597
:10031A00188124960895E9B7EF7BE9BF0E94E404A7
:10032A00A5E7B2E00E949504B09B1CC0E52DF0E061
:10033A003196DF01E8E1F0E00E9496055E2E0E9408
:10034A00DF040E94E704EAEBF0E0FA93EA93E52D72
:10035A000E940C050E9416050E941B05B099FECF4B
:10036A000E941B05B19B16C0E42D0E941F054E2E4C
:10037A000E94DF040E94E704E5ECF0E0FA93EA93B6
:10038A000E94F5040E9416050E941B05B199FECF32
:10039A000E941B05B29B16C0E72D0E941F057E2EE8
:1003AA000E94DF040E94E704E2EDF0E0FA93EA9388
:1003BA000E94FC040E9416050E941B05B299FECFFA
:1003CA000E941B05B39B0BC00E94E404AFE7B2E096
:1003DA000E942705B399FECF0E941B0501C0A4CF36
:1003EA00E0E0E4BDE9B7E064E9BF0E94740408955F
:1003FA001A930A9310E000E00E94E404AAE8B2E02B
:10040A000E949504B19B12C0E12F0E941F051E2F66
:10041A000E94DF040E940705E5ECF0E00E94EC046C
:10042A000E942D050E941B05B199FECFB29B15C0F3
:10043A00E02F0E941F050E2F0E94DF040E9407056D
:10044A00E2EDF0E0FA93EA93E02F0E940C050E9495
:10045A002D050E941B05B299FECFB39B35C0E02F34
:10046A00E70D8E2EE12FE40D6E2FA82DB0E0ECE300
:10047A00F0E00E949105E60F9E2EA92DB0E0ECE374
:10048A00F0E00E949105E50D6E2EA82DBB27ECE346
:10049A00F0E00E9496058E2EA92DBB27ECE3F0E032
:1004AA000E9496059E2EA62DBB27E8E1F0E00E9449
:1004BA0096056E2E689420F80E94E404A5E9B2E03D
:1004CA000E942705C9DE01C09DCF0991199108959F
:1004DA0020FE06C0651421F4941411F4871409F05F
:1004EA0008C0C49AA8EEB3E00E946C05C498E894C8
:1004FA0020F80895BA93AA931A930A93AA81BB8102
:10050A0012960E94B205309729F1AA81BB811496EE
:10051A000E94B2058F01309761F00230E0E01E07B9
:10052A0080F0F80131978F01AA81BB811496ED936F
:10053A00FC93AA81BB8112960E94D4043197AC81A4
:10054A00A083AA81BB810E94B205FF2312F00E94F8
:10055A00D40406C0AA81BB81EFEFFFEFED93FC93B1
:10056A001981088125960895BA93AA9326970E941D
:10057A00BF0510E0AC85BD85E0E0F0E0ED93FC93AB
:10058A00EA89FB893196EA8BFB8B3197E4912E2F0E
:10059A00E03009F415C1E12FE03039F4253211F4C5
:1005AA0011E002C00E9432050AC1E130A9F42532E5
:1005BA0019F40E94320502C112E040E000E02D3237
:1005CA0011F401E0FCC02B3211F44BE2F8C02032E6
:1005DA0011F440E2F4C002C0E23039F450E013E012
:1005EA00203311F40068EBC003C0E33009F0E7C020
:1005FA00203310F02A3308F007C0AAE05A9F502D82
:10060A00E22FE0535E0FDBC0E22FE33649F40E948B
:10061A003905E889F989A481AA930E943F05CEC0C9
:10062A00E33741F40E9439050E9445050E942E04D1
:10063A001E2F0AC0E03761F40E9439050E94450561
:10064A000E943A041E2F086002600F7730E034C01F
:10065A00E43611F0E93611F4046002C0E53731F4EA
:10066A00E4E5F0E0EE83FF8315E00CC0E83511F411
:10067A00086003C0E83709F0A1C0EEE5F0E0EE83B8
:10068A00FF8314E002FF14C00E9439050E944F053F
:10069A00AB85AA233AF4EA85FB850E947A05EA87A4
:1006AA00FB874DE2403011F01F5F01C00B7F04C091
:1006BA000E9439050E944F0500FD11C0151778F4F4
:1006CA0007FF08C002FF04C00B7F242F115001C08E
:1006DA0020E301C020E20E9432055150EFCF312FB2
:1006EA0001FF17C03030A1F003FF06C0EE81FF8181
:1006FA002591EE83FF8305C0AE81BF812D91AE8324
:10070A00BF830E943205503009F051503150EACF70
:10071A004BC020E3EE81FF810E94B605E887F98786
:10072A00EE81FF813296EE83FF83E885F985AA85FB
:10073A00BB85AE17BF0750F02F5FA885B985EA853C
:10074A00FB85EA1BFB0BEA87FB87EFCF2A3328F0EE
:10075A0003FF02C0295F01C0295D04FD1AC02133CD
:10076A0020F4A885B985119709F409C0531710F028
:10077A0000FF01C013C020E207FF0BC020E30061A5
:10078A0002FF07C00B7F4A930E943F05503009F0D1
:10079A0051500E943205503009F051503150A8850D
:1007AA00B985129708F0B5CF00FF08C0503031F074
:1007BA005150E0E2EA930E943F05F8CF10E0E0CE04
:1007CA00AC85BD850E94B2050E94C605649608954F
:1007DA00FF92F82E26970E94C1050E94570530976E
:1007EA0019F4EFEFFFEF23C0DE0116960E9476059B
:1007FA008D010E945705EE83FF83E0E0E887E987D1
:10080A00DE011A960E9476050E94B205FA93EA93CF
:10081A001A930A93EFE7F2E0FA93EA93DE011A9643
:10082A00A3DE9F01AE81BF81E0E0EC93F9010E9453
:10083A00C8052A96FF900895BA93AA93E991F99167
:10084A00A991B991CD0161916D936623E1F7FC01FC
:10085A000895BA93AA93A991B991EE27FF276D91AA
:10086A00662311F03196FBCF0895BA93AA93AA276B
:10087A00BB27E991F9910590002011F01196FBCF61
:10088A00FD010895AA93EBB3EF70AE2FE881E07FE4
:10089A00EA2BEBBB8DE08A95F1F7DA9A8DE08A951F
:1008AA00F1F7DA988DE08A95F1F777C0AA93A881D3
:1008BA00E9DFE881E295E883A881E4DF85E88A95A3
:1008CA00F1F76BC0AA93E881F0E0ED53FD4FE081A8
:1008DA00A981AE0FEBDFB980A88022960895A2E025
:1008EA000E945E05ACE0E2DFA1E00E945E05E0E066
:1008FA00AE2EBE2E0895AA93A881AA3011F0BD1477
:10090A0048F0E0E0EA93A394AA2DDCDFA881AA309C
:10091A0009F443C0B394D89AA881C8DFD8983DC0D7
:10092A00BA93AA931A93A981BA81ED91A983BA833A
:10093A001E2FE03019F0A12FDEDFF5CF18812396A4
:10094A000895AA93EAB3E06FEABBD29AD09AD19AF1
:10095A00DA98D898D998D880E881E058E093C50207
:10096A00E881E054E093C602A4E1B0E00E946C057D
:10097A000E9464050E9464050E946405A0E282DF69
:10098A0088EC90E00197F1F7A8E290DFA4E08EDF0F
:10099A00A5E88CDFA6E08ADFA2DF21960895ED9113
:1009AA00FD913196FE93EE930895E0E0EA93A0E07C
:1009BA000C946704E0E0EA93A1E00C9467040E94B7
:1009CA007404F3CFEFE9F2E0FA93EA930895FA9305
:1009DA00EA93E12FFF27662777270E94BA05089531
:1009EA00E42DFF27662777270E94BA050895E72D89
:1009FA00FF27662777270E94BA050895AFE9B2E074
:100A0A000C949504E0EBF2E0FA93EA930895FF2739
:100A1A00662777270E94BA050895A0EBB2E00C94E6
:100A2A00950484E00E94ED032896E8CFA2E3B0E0A3
:100A3A000C946C05F0E03196DF01ECE3F0E00E94E3
:100A4A00960508950E949504A8EEB3E00C946C05EF
:100A5A0084E00E94ED032896E0CF2A93AD85BE85F7
:100A6A00EF85F88909950895E889F9893497E88B1B
:100A7A00F98B0895AD85BE85EF85F88909950895A6
:100A8A00A889B98914960E94B205EE83FF83AE81C4
:100A9A00BF810895A889B98914960E94B205EA8788
:100AAA00FB870895DE011C960E9476050E94B20516
:100ABA0008950E945B04A3E0B0E00C946C05A0E3E7
:100ACA000E94470488EC90E00197F1F70895109688
:100ADA0039F0A89580ED97E00197F1F71197C9F7DA
:100AEA0008950024AF0DB01D0895F195E195F040E9
:100AFA0008950024112490E1AA0FBB1F001C111CA9
:100B0A000E1A1F0A18F40E0E1F1E01C0A1609A9534
:100B1A0099F7FD01D001089512D0EBDF0EF4E5DF5D
:100B2A000895E894B7FF04C0A095B095119668940B
:100B3A00F7FDDBDFDEDFFD010EF4D7DF0895E89471
:100B4A00F7FF02C0D2DF6894B7FF06C0A095B09540
:100B5A00119600F8039400FA0895ED91FC9111970B
:100B6A0008950590F491E02D08957A936A93FA9383
:100B7A00EA9308955A934A933A932A931A930A93B3
:100B8A0008955D814C813B812A81198108810895EC
:00000001FF
